{
  "_format": "hh-sol-artifact-1",
  "contractName": "Minesweeper",
  "sourceName": "contracts/Minesweeper.sol",
  "abi": [
    {
      "anonymous": false,
      "inputs": [
        {
          "indexed": true,
          "internalType": "address",
          "name": "player",
          "type": "address"
        },
        {
          "indexed": false,
          "internalType": "uint8",
          "name": "x",
          "type": "uint8"
        },
        {
          "indexed": false,
          "internalType": "uint8",
          "name": "y",
          "type": "uint8"
        },
        {
          "indexed": false,
          "internalType": "bool",
          "name": "isMine",
          "type": "bool"
        },
        {
          "indexed": false,
          "internalType": "uint8",
          "name": "adjacentMines",
          "type": "uint8"
        }
      ],
      "name": "CellRevealed",
      "type": "event"
    },
    {
      "anonymous": false,
      "inputs": [
        {
          "indexed": true,
          "internalType": "address",
          "name": "player",
          "type": "address"
        },
        {
          "indexed": false,
          "internalType": "uint8",
          "name": "x",
          "type": "uint8"
        },
        {
          "indexed": false,
          "internalType": "uint8",
          "name": "y",
          "type": "uint8"
        },
        {
          "indexed": false,
          "internalType": "uint32",
          "name": "clickCount",
          "type": "uint32"
        }
      ],
      "name": "GameLost",
      "type": "event"
    },
    {
      "anonymous": false,
      "inputs": [
        {
          "indexed": true,
          "internalType": "address",
          "name": "player",
          "type": "address"
        },
        {
          "indexed": false,
          "internalType": "uint8",
          "name": "width",
          "type": "uint8"
        },
        {
          "indexed": false,
          "internalType": "uint8",
          "name": "height",
          "type": "uint8"
        },
        {
          "indexed": false,
          "internalType": "uint16",
          "name": "mineCount",
          "type": "uint16"
        }
      ],
      "name": "GameStarted",
      "type": "event"
    },
    {
      "anonymous": false,
      "inputs": [
        {
          "indexed": true,
          "internalType": "address",
          "name": "player",
          "type": "address"
        },
        {
          "indexed": false,
          "internalType": "uint32",
          "name": "score",
          "type": "uint32"
        },
        {
          "indexed": false,
          "internalType": "uint32",
          "name": "clickCount",
          "type": "uint32"
        },
        {
          "indexed": false,
          "internalType": "uint256",
          "name": "duration",
          "type": "uint256"
        }
      ],
      "name": "GameWon",
      "type": "event"
    },
    {
      "anonymous": false,
      "inputs": [
        {
          "indexed": true,
          "internalType": "address",
          "name": "player",
          "type": "address"
        },
        {
          "indexed": false,
          "internalType": "uint32",
          "name": "newHighScore",
          "type": "uint32"
        }
      ],
      "name": "HighScoreUpdated",
      "type": "event"
    },
    {
      "inputs": [],
      "name": "CELL_SCORE",
      "outputs": [
        {
          "internalType": "uint32",
          "name": "",
          "type": "uint32"
        }
      ],
      "stateMutability": "view",
      "type": "function"
    },
    {
      "inputs": [],
      "name": "MAX_MINE_RATE",
      "outputs": [
        {
          "internalType": "uint8",
          "name": "",
          "type": "uint8"
        }
      ],
      "stateMutability": "view",
      "type": "function"
    },
    {
      "inputs": [],
      "name": "MAX_SIZE",
      "outputs": [
        {
          "internalType": "uint8",
          "name": "",
          "type": "uint8"
        }
      ],
      "stateMutability": "view",
      "type": "function"
    },
    {
      "inputs": [],
      "name": "MIN_MINE_RATE",
      "outputs": [
        {
          "internalType": "uint8",
          "name": "",
          "type": "uint8"
        }
      ],
      "stateMutability": "view",
      "type": "function"
    },
    {
      "inputs": [],
      "name": "MIN_SIZE",
      "outputs": [
        {
          "internalType": "uint8",
          "name": "",
          "type": "uint8"
        }
      ],
      "stateMutability": "view",
      "type": "function"
    },
    {
      "inputs": [],
      "name": "WIN_BONUS",
      "outputs": [
        {
          "internalType": "uint32",
          "name": "",
          "type": "uint32"
        }
      ],
      "stateMutability": "view",
      "type": "function"
    },
    {
      "inputs": [
        {
          "internalType": "address",
          "name": "",
          "type": "address"
        }
      ],
      "name": "games",
      "outputs": [
        {
          "internalType": "uint8",
          "name": "width",
          "type": "uint8"
        },
        {
          "internalType": "uint8",
          "name": "height",
          "type": "uint8"
        },
        {
          "internalType": "uint16",
          "name": "mineCount",
          "type": "uint16"
        },
        {
          "internalType": "uint256",
          "name": "revealedCells",
          "type": "uint256"
        },
        {
          "internalType": "uint256",
          "name": "mineBitmap",
          "type": "uint256"
        },
        {
          "internalType": "enum Minesweeper.GameStatus",
          "name": "status",
          "type": "uint8"
        },
        {
          "internalType": "uint32",
          "name": "score",
          "type": "uint32"
        },
        {
          "internalType": "uint32",
          "name": "clickCount",
          "type": "uint32"
        },
        {
          "internalType": "uint256",
          "name": "startTime",
          "type": "uint256"
        },
        {
          "internalType": "uint256",
          "name": "endTime",
          "type": "uint256"
        },
        {
          "internalType": "bool",
          "name": "initialized",
          "type": "bool"
        }
      ],
      "stateMutability": "view",
      "type": "function"
    },
    {
      "inputs": [
        {
          "internalType": "uint8",
          "name": "x",
          "type": "uint8"
        },
        {
          "internalType": "uint8",
          "name": "y",
          "type": "uint8"
        }
      ],
      "name": "getAdjacentMineCount",
      "outputs": [
        {
          "internalType": "uint8",
          "name": "",
          "type": "uint8"
        }
      ],
      "stateMutability": "view",
      "type": "function"
    },
    {
      "inputs": [],
      "name": "getGameInfo",
      "outputs": [
        {
          "internalType": "uint8",
          "name": "width",
          "type": "uint8"
        },
        {
          "internalType": "uint8",
          "name": "height",
          "type": "uint8"
        },
        {
          "internalType": "uint16",
          "name": "mineCount",
          "type": "uint16"
        },
        {
          "internalType": "enum Minesweeper.GameStatus",
          "name": "status",
          "type": "uint8"
        },
        {
          "internalType": "uint32",
          "name": "score",
          "type": "uint32"
        },
        {
          "internalType": "uint32",
          "name": "clickCount",
          "type": "uint32"
        },
        {
          "internalType": "uint256",
          "name": "startTime",
          "type": "uint256"
        },
        {
          "internalType": "uint256",
          "name": "endTime",
          "type": "uint256"
        },
        {
          "internalType": "bool",
          "name": "initialized",
          "type": "bool"
        }
      ],
      "stateMutability": "view",
      "type": "function"
    },
    {
      "inputs": [],
      "name": "getPlayerStats",
      "outputs": [
        {
          "internalType": "uint32",
          "name": "totalGamesPlayed",
          "type": "uint32"
        },
        {
          "internalType": "uint32",
          "name": "gamesWon",
          "type": "uint32"
        },
        {
          "internalType": "uint32",
          "name": "currentHighScore",
          "type": "uint32"
        },
        {
          "internalType": "uint8",
          "name": "winRate",
          "type": "uint8"
        }
      ],
      "stateMutability": "view",
      "type": "function"
    },
    {
      "inputs": [
        {
          "internalType": "address",
          "name": "",
          "type": "address"
        }
      ],
      "name": "highScores",
      "outputs": [
        {
          "internalType": "uint32",
          "name": "",
          "type": "uint32"
        }
      ],
      "stateMutability": "view",
      "type": "function"
    },
    {
      "inputs": [
        {
          "internalType": "uint8",
          "name": "x",
          "type": "uint8"
        },
        {
          "internalType": "uint8",
          "name": "y",
          "type": "uint8"
        }
      ],
      "name": "isCellRevealed",
      "outputs": [
        {
          "internalType": "bool",
          "name": "",
          "type": "bool"
        }
      ],
      "stateMutability": "view",
      "type": "function"
    },
    {
      "inputs": [
        {
          "internalType": "uint8",
          "name": "x",
          "type": "uint8"
        },
        {
          "internalType": "uint8",
          "name": "y",
          "type": "uint8"
        }
      ],
      "name": "revealCell",
      "outputs": [],
      "stateMutability": "nonpayable",
      "type": "function"
    },
    {
      "inputs": [
        {
          "internalType": "uint8",
          "name": "width",
          "type": "uint8"
        },
        {
          "internalType": "uint8",
          "name": "height",
          "type": "uint8"
        },
        {
          "internalType": "uint16",
          "name": "mineCount",
          "type": "uint16"
        }
      ],
      "name": "startGame",
      "outputs": [],
      "stateMutability": "nonpayable",
      "type": "function"
    },
    {
      "inputs": [
        {
          "internalType": "address",
          "name": "",
          "type": "address"
        }
      ],
      "name": "totalGames",
      "outputs": [
        {
          "internalType": "uint32",
          "name": "",
          "type": "uint32"
        }
      ],
      "stateMutability": "view",
      "type": "function"
    },
    {
      "inputs": [
        {
          "internalType": "address",
          "name": "",
          "type": "address"
        }
      ],
      "name": "winCount",
      "outputs": [
        {
          "internalType": "uint32",
          "name": "",
          "type": "uint32"
        }
      ],
      "stateMutability": "view",
      "type": "function"
    }
  ],
  "bytecode": "0x608060405234801561001057600080fd5b50611510806100206000396000f3fe608060405234801561001057600080fd5b50600436106100ff5760003560e01c806379131a19116100975780639663ccf1116100665780639663ccf11461030d5780639ee905c114610333578063bc877d751461033b578063ff09bbaf1461035e57600080fd5b806379131a19146102295780637d64b8c5146102ba578063847a5e99146102cd5780638d67799e1461030557600080fd5b806345dcd02c116100d357806345dcd02c146101ce57806346ed7144146101e85780634cb57892146101f057806354bd50231461020357600080fd5b8062d8e104146101045780631746bd1b1461014457806331f5a015146101b15780633a6f6b38146101c6575b600080fd5b61012a61011236600461111e565b60016020526000908152604090205463ffffffff1681565b60405163ffffffff90911681526020015b60405180910390f35b33600090815260208190526040908190208054600382015460048301546005840154600690940154945161013b9560ff8086169661010080880483169762010000900461ffff16968381169691810463ffffffff90811696600160281b9092041694919390911690611186565b6101c46101bf3660046111fd565b610366565b005b61012a600581565b6101d6600581565b60405160ff909116815260200161013b565b6101d6600a81565b6101d66101fe36600461124b565b610697565b61012a61021136600461111e565b60036020526000908152604090205463ffffffff1681565b6102a361023736600461111e565b600060208190529081526040902080546001820154600283015460038401546004850154600586015460069096015460ff8087169761010080890483169862010000900461ffff169796958381169591810463ffffffff90811695600160281b9092041693919291168b565b60405161013b9b9a9998979695949392919061127e565b6101c46102c836600461124b565b610783565b6102d5610d76565b6040805163ffffffff95861681529385166020850152919093169082015260ff909116606082015260800161013b565b6101d6601481565b61012a61031b36600461111e565b60026020526000908152604090205463ffffffff1681565b61012a600181565b61034e61034936600461124b565b610deb565b604051901515815260200161013b565b6101d6601e81565b600560ff84161080159061037e5750601460ff841611155b6103bf5760405162461bcd60e51b815260206004820152600d60248201526c092dcecc2d8d2c840eed2c8e8d609b1b60448201526064015b60405180910390fd5b600560ff8316108015906103d75750601460ff831611155b6104145760405162461bcd60e51b815260206004820152600e60248201526d125b9d985b1a59081a195a59da1d60921b60448201526064016103b6565b600061042660ff808516908616611307565b905060006064610437600a84611307565b6104419190611343565b905060006064610452601e85611307565b61045c9190611343565b90508161ffff168461ffff161015801561047e57508061ffff168461ffff1611155b6104bf5760405162461bcd60e51b8152602060048201526012602482015271125b9d985b1a59081b5a5b994818dbdd5b9d60721b60448201526064016103b6565b8261ffff168461ffff16106105075760405162461bcd60e51b815260206004820152600e60248201526d546f6f206d616e79206d696e657360901b60448201526064016103b6565b3360009081526020819052604090206006015460ff1680156105505750600133600090815260208190526040902060039081015460ff169081111561054e5761054e61114e565b145b15610575573360009081526020819052604090206003908101805460ff191690911790555b336000908152602081905260408120805460ff89811661ffff1990921691909117610100918916919091021763ffff000019166201000061ffff88160217815560018082018390556002820183905560038201805468ffffffffffffffffff191682179055426004830155600582019290925560068101805460ff19169092179091556106028185610e80565b336000908152600260205260408120805463ffffffff169161062383611364565b82546101009290920a63ffffffff818102199093169190921691909102179055506040805160ff89811682528816602082015261ffff871681830152905133917f4139233f315f5fadea5d2225800418d97cc3a4b36f5abea7cfd327517e4a4f40919081900360600190a250505050505050565b33600090815260208190526040812080548491849160ff9081169084161080156106cd5750805460ff6101009091048116908316105b6106e95760405162461bcd60e51b81526004016103b690611387565b336000908152602081905260408120805490919060ff808a169161071291908116908a16611307565b61071c91906113b3565b905061072c826001015482610f9a565b61076c5760405162461bcd60e51b815260206004820152601160248201527010d95b1b081b9bdd081c995d99585b1959607a1b60448201526064016103b6565b610777828989610fae565b98975050505050505050565b3360009081526020819052604090206006015460ff166107dc5760405162461bcd60e51b815260206004820152601460248201527311d85b59481b9bdd081a5b9a5d1a585b1a5e995960621b60448201526064016103b6565b600133600090815260208190526040902060039081015460ff16908111156108065761080661114e565b1461084a5760405162461bcd60e51b815260206004820152601460248201527347616d65206e6f7420696e2070726f677265737360601b60448201526064016103b6565b33600090815260208190526040902080548391839160ff9081169084161080156108805750805460ff6101009091048116908316105b61089c5760405162461bcd60e51b81526004016103b690611387565b336000908152602081905260408120805490919060ff808916916108c591908116908916611307565b6108cf91906113b3565b90506108df826001015482610f9a565b156109245760405162461bcd60e51b815260206004820152601560248201527410d95b1b08185b1c9958591e481c995d99585b1959605a1b60448201526064016103b6565b600382018054600160281b900463ffffffff1690600561094383611364565b91906101000a81548163ffffffff021916908363ffffffff160217905550506000610972836002015483610f9a565b905080156109e9576003838101805460ff1916909117908190554260058501556040805160ff8b811682528a166020820152600160281b90920463ffffffff16828201525133917f853901fcfa6bbf65a18067c3e739348107597a4e7599d39ed131ea1763670ee9919081900360600190a2610d6c565b6001838101805461ffff851683901b1790556003840180548290610a19908290610100900463ffffffff166113d5565b92506101000a81548163ffffffff021916908363ffffffff1602179055506000610a44848a8a610fae565b6040805160ff8c811682528b8116602083015260008284015283166060820152905191925033917f0bc79a06ee6795cafb335143fbb8fe00fc6dee78275ca5df9bbb1836a3b11f7a9181900360800190a28354600090610aae9060ff610100820481169116611307565b90506000610ac08660010154836110cf565b8654909150610ad99062010000900461ffff16836113f2565b61ffff168161ffff1603610d685760038601805460ff1916600217808255426005808a01919091559190600190610b1d90849063ffffffff610100909104166113d5565b92506101000a81548163ffffffff021916908363ffffffff1602179055506000828760000160029054906101000a900461ffff166064610b5d9190611307565b610b679190611343565b905060198161ffff1610610bc457600387810154600291610b9391610100900463ffffffff169061140d565b610b9d919061142d565b8760030160016101000a81548163ffffffff021916908363ffffffff160217905550610c1b565b60148161ffff1610610c1b576003870154600490610bee90610100900463ffffffff16600561140d565b610bf8919061142d565b8760030160016101000a81548163ffffffff021916908363ffffffff1602179055505b336000908152600360205260408120805463ffffffff1691610c3c83611364565b825463ffffffff91821661010093840a90810290830219909116179092553360009081526001602052604090205460038b015490831691900490911611159050610cf15760038701805433600081815260016020908152604091829020805463ffffffff191663ffffffff6101009687900481169190911790915594549151939091049093168252917fdad5ec4a6e9b302423c6c3b02b075ff07a0267e83e619498a9d9ec9643958edb910160405180910390a25b600087600401548860050154610d079190611444565b60038901546040805163ffffffff610100840481168252600160281b9093049092166020830152810182905290915033907fbd60e1874ff6702f60f69bd3ca8831fb865ce678b446ef6d30f7e61ee5f790f39060600160405180910390a250505b5050505b5050505050505050565b33600090815260026020908152604080832054600390925282205482918291829163ffffffff90811691168282610dae576000610dc4565b82610dba83606461140d565b610dc4919061142d565b33600090815260016020526040902054939892975063ffffffff9093169550919350915050565b33600090815260208190526040812080548491849160ff908116908416108015610e215750805460ff6101009091048116908316105b610e3d5760405162461bcd60e51b81526004016103b690611387565b336000908152602081905260408120805490919060ff808a1691610e6691908116908a16611307565b610e7091906113b3565b9050610777826001015482610f9a565b81546040805144602080830191909152428284015233606090811b6bffffffffffffffffffffffff19169083015260f884811b6001600160f81b03199081166074850152610100909504901b909316607582015281518082036056018152607690910190915280519101206000815b845461ffff6201000090910481169083161015610f93576000610f1661ffff861683611457565b9050610f26866002015482610f9a565b610f4957600286018054600161ffff84161b17905582610f458161146b565b9350505b8183604051602001610f7292919091825260f01b6001600160f01b031916602082015260220190565b6040516020818303038152906040528051906020012060001c915050610eef565b5050505050565b600161ffff821683901c8116145b92915050565b6000806000195b60018160000b136110c6576000195b60018160000b136110b3578160000b6000148015610fe557508060000b6000145b6110a1576000610ff983820b88830b611482565b9050600061100b83820b88830b611482565b905060008260010b1215801561102b5750885460ff1660000b600183900b125b801561103b575060008160010b12155b801561105657508854610100900460ff1660000b600182900b125b1561109e578854600090839061106f9060ff1684611307565b61107991906113b3565b90506110898a6002015482610f9a565b1561109c5785611098816114a5565b9650505b505b50505b806110ab816114c4565b915050610fc4565b50806110be816114c4565b915050610fb5565b50949350505050565b600080805b8361ffff168161ffff161015611116578061ffff1685901c60011660010361110457816111008161146b565b9250505b8061110e8161146b565b9150506110d4565b509392505050565b60006020828403121561113057600080fd5b81356001600160a01b038116811461114757600080fd5b9392505050565b634e487b7160e01b600052602160045260246000fd5b6004811061118257634e487b7160e01b600052602160045260246000fd5b9052565b60ff8a811682528916602082015261ffff8816604082015261012081016111b06060830189611164565b63ffffffff96871660808301529490951660a086015260c085019290925260e0840152151561010090920191909152949350505050565b803560ff811681146111f857600080fd5b919050565b60008060006060848603121561121257600080fd5b61121b846111e7565b9250611229602085016111e7565b9150604084013561ffff8116811461124057600080fd5b809150509250925092565b6000806040838503121561125e57600080fd5b611267836111e7565b9150611275602084016111e7565b90509250929050565b60ff8c811682528b16602082015261ffff8a166040820152606081018990526080810188905261016081016112b660a0830189611164565b63ffffffff96871660c08301529490951660e08601526101008501929092526101208401521515610140909201919091529695505050505050565b634e487b7160e01b600052601160045260246000fd5b61ffff818116838216028082169190828114611325576113256112f1565b505092915050565b634e487b7160e01b600052601260045260246000fd5b600061ffff808416806113585761135861132d565b92169190910492915050565b600063ffffffff80831681810361137d5761137d6112f1565b6001019392505050565b602080825260129082015271496e76616c696420636f6f7264696e61746560701b604082015260600190565b61ffff8181168382160190808211156113ce576113ce6112f1565b5092915050565b63ffffffff8181168382160190808211156113ce576113ce6112f1565b61ffff8281168282160390808211156113ce576113ce6112f1565b63ffffffff818116838216028082169190828114611325576113256112f1565b600063ffffffff808416806113585761135861132d565b81810381811115610fa857610fa86112f1565b6000826114665761146661132d565b500690565b600061ffff80831681810361137d5761137d6112f1565b600181810b9083900b01617fff8113617fff1982121715610fa857610fa86112f1565b600060ff821660ff81036114bb576114bb6112f1565b60010192915050565b60008160000b607f81036114bb576114bb6112f156fea264697066735822122049d130009a4a65af024b3de29c4e039a43c7a9631ff94666f2b3a4f4bc30464364736f6c63430008130033",
  "linkReferences": {},
  "deployedLinkReferences": {}
}