{"contracts/Minesweeper.sol":{"Minesweeper":{"abi":[{"anonymous":false,"inputs":[{"indexed":true,"internalType":"address","name":"player","type":"address"},{"indexed":false,"internalType":"uint8","name":"x","type":"uint8"},{"indexed":false,"internalType":"uint8","name":"y","type":"uint8"},{"indexed":false,"internalType":"bool","name":"isMine","type":"bool"},{"indexed":false,"internalType":"uint8","name":"adjacentMines","type":"uint8"}],"name":"CellRevealed","type":"event"},{"anonymous":false,"inputs":[{"indexed":true,"internalType":"address","name":"player","type":"address"},{"indexed":false,"internalType":"uint8","name":"x","type":"uint8"},{"indexed":false,"internalType":"uint8","name":"y","type":"uint8"},{"indexed":false,"internalType":"uint32","name":"clickCount","type":"uint32"}],"name":"GameLost","type":"event"},{"anonymous":false,"inputs":[{"indexed":true,"internalType":"address","name":"player","type":"address"},{"indexed":false,"internalType":"uint8","name":"width","type":"uint8"},{"indexed":false,"internalType":"uint8","name":"height","type":"uint8"},{"indexed":false,"internalType":"uint16","name":"mineCount","type":"uint16"}],"name":"GameStarted","type":"event"},{"anonymous":false,"inputs":[{"indexed":true,"internalType":"address","name":"player","type":"address"},{"indexed":false,"internalType":"uint32","name":"score","type":"uint32"},{"indexed":false,"internalType":"uint32","name":"clickCount","type":"uint32"},{"indexed":false,"internalType":"uint256","name":"duration","type":"uint256"}],"name":"GameWon","type":"event"},{"anonymous":false,"inputs":[{"indexed":true,"internalType":"address","name":"player","type":"address"},{"indexed":false,"internalType":"uint32","name":"newHighScore","type":"uint32"}],"name":"HighScoreUpdated","type":"event"},{"inputs":[],"name":"CELL_SCORE","outputs":[{"internalType":"uint32","name":"","type":"uint32"}],"stateMutability":"view","type":"function"},{"inputs":[],"name":"MAX_MINE_RATE","outputs":[{"internalType":"uint8","name":"","type":"uint8"}],"stateMutability":"view","type":"function"},{"inputs":[],"name":"MAX_SIZE","outputs":[{"internalType":"uint8","name":"","type":"uint8"}],"stateMutability":"view","type":"function"},{"inputs":[],"name":"MIN_MINE_RATE","outputs":[{"internalType":"uint8","name":"","type":"uint8"}],"stateMutability":"view","type":"function"},{"inputs":[],"name":"MIN_SIZE","outputs":[{"internalType":"uint8","name":"","type":"uint8"}],"stateMutability":"view","type":"function"},{"inputs":[],"name":"WIN_BONUS","outputs":[{"internalType":"uint32","name":"","type":"uint32"}],"stateMutability":"view","type":"function"},{"inputs":[{"internalType":"address","name":"","type":"address"}],"name":"games","outputs":[{"internalType":"uint8","name":"width","type":"uint8"},{"internalType":"uint8","name":"height","type":"uint8"},{"internalType":"uint16","name":"mineCount","type":"uint16"},{"internalType":"uint256","name":"revealedCells","type":"uint256"},{"internalType":"uint256","name":"mineBitmap","type":"uint256"},{"internalType":"enum Minesweeper.GameStatus","name":"status","type":"uint8"},{"internalType":"uint32","name":"score","type":"uint32"},{"internalType":"uint32","name":"clickCount","type":"uint32"},{"internalType":"uint256","name":"startTime","type":"uint256"},{"internalType":"uint256","name":"endTime","type":"uint256"},{"internalType":"bool","name":"initialized","type":"bool"}],"stateMutability":"view","type":"function"},{"inputs":[{"internalType":"uint8","name":"x","type":"uint8"},{"internalType":"uint8","name":"y","type":"uint8"}],"name":"getAdjacentMineCount","outputs":[{"internalType":"uint8","name":"","type":"uint8"}],"stateMutability":"view","type":"function"},{"inputs":[],"name":"getGameInfo","outputs":[{"internalType":"uint8","name":"width","type":"uint8"},{"internalType":"uint8","name":"height","type":"uint8"},{"internalType":"uint16","name":"mineCount","type":"uint16"},{"internalType":"enum Minesweeper.GameStatus","name":"status","type":"uint8"},{"internalType":"uint32","name":"score","type":"uint32"},{"internalType":"uint32","name":"clickCount","type":"uint32"},{"internalType":"uint256","name":"startTime","type":"uint256"},{"internalType":"uint256","name":"endTime","type":"uint256"},{"internalType":"bool","name":"initialized","type":"bool"}],"stateMutability":"view","type":"function"},{"inputs":[],"name":"getPlayerStats","outputs":[{"internalType":"uint32","name":"totalGamesPlayed","type":"uint32"},{"internalType":"uint32","name":"gamesWon","type":"uint32"},{"internalType":"uint32","name":"currentHighScore","type":"uint32"},{"internalType":"uint8","name":"winRate","type":"uint8"}],"stateMutability":"view","type":"function"},{"inputs":[{"internalType":"address","name":"","type":"address"}],"name":"highScores","outputs":[{"internalType":"uint32","name":"","type":"uint32"}],"stateMutability":"view","type":"function"},{"inputs":[{"internalType":"uint8","name":"x","type":"uint8"},{"internalType":"uint8","name":"y","type":"uint8"}],"name":"isCellRevealed","outputs":[{"internalType":"bool","name":"","type":"bool"}],"stateMutability":"view","type":"function"},{"inputs":[{"internalType":"uint8","name":"x","type":"uint8"},{"internalType":"uint8","name":"y","type":"uint8"}],"name":"revealCell","outputs":[],"stateMutability":"nonpayable","type":"function"},{"inputs":[{"internalType":"uint8","name":"width","type":"uint8"},{"internalType":"uint8","name":"height","type":"uint8"},{"internalType":"uint16","name":"mineCount","type":"uint16"}],"name":"startGame","outputs":[],"stateMutability":"nonpayable","type":"function"},{"inputs":[{"internalType":"address","name":"","type":"address"}],"name":"totalGames","outputs":[{"internalType":"uint32","name":"","type":"uint32"}],"stateMutability":"view","type":"function"},{"inputs":[{"internalType":"address","name":"","type":"address"}],"name":"winCount","outputs":[{"internalType":"uint32","name":"","type":"uint32"}],"stateMutability":"view","type":"function"}],"evm":{"bytecode":{"linkReferences":{},"object":"608060405234801561001057600080fd5b50611510806100206000396000f3fe608060405234801561001057600080fd5b50600436106100ff5760003560e01c806379131a19116100975780639663ccf1116100665780639663ccf11461030d5780639ee905c114610333578063bc877d751461033b578063ff09bbaf1461035e57600080fd5b806379131a19146102295780637d64b8c5146102ba578063847a5e99146102cd5780638d67799e1461030557600080fd5b806345dcd02c116100d357806345dcd02c146101ce57806346ed7144146101e85780634cb57892146101f057806354bd50231461020357600080fd5b8062d8e104146101045780631746bd1b1461014457806331f5a015146101b15780633a6f6b38146101c6575b600080fd5b61012a61011236600461111e565b60016020526000908152604090205463ffffffff1681565b60405163ffffffff90911681526020015b60405180910390f35b33600090815260208190526040908190208054600382015460048301546005840154600690940154945161013b9560ff8086169661010080880483169762010000900461ffff16968381169691810463ffffffff90811696600160281b9092041694919390911690611186565b6101c46101bf3660046111fd565b610366565b005b61012a600581565b6101d6600581565b60405160ff909116815260200161013b565b6101d6600a81565b6101d66101fe36600461124b565b610697565b61012a61021136600461111e565b60036020526000908152604090205463ffffffff1681565b6102a361023736600461111e565b600060208190529081526040902080546001820154600283015460038401546004850154600586015460069096015460ff8087169761010080890483169862010000900461ffff169796958381169591810463ffffffff90811695600160281b9092041693919291168b565b60405161013b9b9a9998979695949392919061127e565b6101c46102c836600461124b565b610783565b6102d5610d76565b6040805163ffffffff95861681529385166020850152919093169082015260ff909116606082015260800161013b565b6101d6601481565b61012a61031b36600461111e565b60026020526000908152604090205463ffffffff1681565b61012a600181565b61034e61034936600461124b565b610deb565b604051901515815260200161013b565b6101d6601e81565b600560ff84161080159061037e5750601460ff841611155b6103bf5760405162461bcd60e51b815260206004820152600d60248201526c092dcecc2d8d2c840eed2c8e8d609b1b60448201526064015b60405180910390fd5b600560ff8316108015906103d75750601460ff831611155b6104145760405162461bcd60e51b815260206004820152600e60248201526d125b9d985b1a59081a195a59da1d60921b60448201526064016103b6565b600061042660ff808516908616611307565b905060006064610437600a84611307565b6104419190611343565b905060006064610452601e85611307565b61045c9190611343565b90508161ffff168461ffff161015801561047e57508061ffff168461ffff1611155b6104bf5760405162461bcd60e51b8152602060048201526012602482015271125b9d985b1a59081b5a5b994818dbdd5b9d60721b60448201526064016103b6565b8261ffff168461ffff16106105075760405162461bcd60e51b815260206004820152600e60248201526d546f6f206d616e79206d696e657360901b60448201526064016103b6565b3360009081526020819052604090206006015460ff1680156105505750600133600090815260208190526040902060039081015460ff169081111561054e5761054e61114e565b145b15610575573360009081526020819052604090206003908101805460ff191690911790555b336000908152602081905260408120805460ff89811661ffff1990921691909117610100918916919091021763ffff000019166201000061ffff88160217815560018082018390556002820183905560038201805468ffffffffffffffffff191682179055426004830155600582019290925560068101805460ff19169092179091556106028185610e80565b336000908152600260205260408120805463ffffffff169161062383611364565b82546101009290920a63ffffffff818102199093169190921691909102179055506040805160ff89811682528816602082015261ffff871681830152905133917f4139233f315f5fadea5d2225800418d97cc3a4b36f5abea7cfd327517e4a4f40919081900360600190a250505050505050565b33600090815260208190526040812080548491849160ff9081169084161080156106cd5750805460ff6101009091048116908316105b6106e95760405162461bcd60e51b81526004016103b690611387565b336000908152602081905260408120805490919060ff808a169161071291908116908a16611307565b61071c91906113b3565b905061072c826001015482610f9a565b61076c5760405162461bcd60e51b815260206004820152601160248201527010d95b1b081b9bdd081c995d99585b1959607a1b60448201526064016103b6565b610777828989610fae565b98975050505050505050565b3360009081526020819052604090206006015460ff166107dc5760405162461bcd60e51b815260206004820152601460248201527311d85b59481b9bdd081a5b9a5d1a585b1a5e995960621b60448201526064016103b6565b600133600090815260208190526040902060039081015460ff16908111156108065761080661114e565b1461084a5760405162461bcd60e51b815260206004820152601460248201527347616d65206e6f7420696e2070726f677265737360601b60448201526064016103b6565b33600090815260208190526040902080548391839160ff9081169084161080156108805750805460ff6101009091048116908316105b61089c5760405162461bcd60e51b81526004016103b690611387565b336000908152602081905260408120805490919060ff808916916108c591908116908916611307565b6108cf91906113b3565b90506108df826001015482610f9a565b156109245760405162461bcd60e51b815260206004820152601560248201527410d95b1b08185b1c9958591e481c995d99585b1959605a1b60448201526064016103b6565b600382018054600160281b900463ffffffff1690600561094383611364565b91906101000a81548163ffffffff021916908363ffffffff160217905550506000610972836002015483610f9a565b905080156109e9576003838101805460ff1916909117908190554260058501556040805160ff8b811682528a166020820152600160281b90920463ffffffff16828201525133917f853901fcfa6bbf65a18067c3e739348107597a4e7599d39ed131ea1763670ee9919081900360600190a2610d6c565b6001838101805461ffff851683901b1790556003840180548290610a19908290610100900463ffffffff166113d5565b92506101000a81548163ffffffff021916908363ffffffff1602179055506000610a44848a8a610fae565b6040805160ff8c811682528b8116602083015260008284015283166060820152905191925033917f0bc79a06ee6795cafb335143fbb8fe00fc6dee78275ca5df9bbb1836a3b11f7a9181900360800190a28354600090610aae9060ff610100820481169116611307565b90506000610ac08660010154836110cf565b8654909150610ad99062010000900461ffff16836113f2565b61ffff168161ffff1603610d685760038601805460ff1916600217808255426005808a01919091559190600190610b1d90849063ffffffff610100909104166113d5565b92506101000a81548163ffffffff021916908363ffffffff1602179055506000828760000160029054906101000a900461ffff166064610b5d9190611307565b610b679190611343565b905060198161ffff1610610bc457600387810154600291610b9391610100900463ffffffff169061140d565b610b9d919061142d565b8760030160016101000a81548163ffffffff021916908363ffffffff160217905550610c1b565b60148161ffff1610610c1b576003870154600490610bee90610100900463ffffffff16600561140d565b610bf8919061142d565b8760030160016101000a81548163ffffffff021916908363ffffffff1602179055505b336000908152600360205260408120805463ffffffff1691610c3c83611364565b825463ffffffff91821661010093840a90810290830219909116179092553360009081526001602052604090205460038b015490831691900490911611159050610cf15760038701805433600081815260016020908152604091829020805463ffffffff191663ffffffff6101009687900481169190911790915594549151939091049093168252917fdad5ec4a6e9b302423c6c3b02b075ff07a0267e83e619498a9d9ec9643958edb910160405180910390a25b600087600401548860050154610d079190611444565b60038901546040805163ffffffff610100840481168252600160281b9093049092166020830152810182905290915033907fbd60e1874ff6702f60f69bd3ca8831fb865ce678b446ef6d30f7e61ee5f790f39060600160405180910390a250505b5050505b5050505050505050565b33600090815260026020908152604080832054600390925282205482918291829163ffffffff90811691168282610dae576000610dc4565b82610dba83606461140d565b610dc4919061142d565b33600090815260016020526040902054939892975063ffffffff9093169550919350915050565b33600090815260208190526040812080548491849160ff908116908416108015610e215750805460ff6101009091048116908316105b610e3d5760405162461bcd60e51b81526004016103b690611387565b336000908152602081905260408120805490919060ff808a1691610e6691908116908a16611307565b610e7091906113b3565b9050610777826001015482610f9a565b81546040805144602080830191909152428284015233606090811b6bffffffffffffffffffffffff19169083015260f884811b6001600160f81b03199081166074850152610100909504901b909316607582015281518082036056018152607690910190915280519101206000815b845461ffff6201000090910481169083161015610f93576000610f1661ffff861683611457565b9050610f26866002015482610f9a565b610f4957600286018054600161ffff84161b17905582610f458161146b565b9350505b8183604051602001610f7292919091825260f01b6001600160f01b031916602082015260220190565b6040516020818303038152906040528051906020012060001c915050610eef565b5050505050565b600161ffff821683901c8116145b92915050565b6000806000195b60018160000b136110c6576000195b60018160000b136110b3578160000b6000148015610fe557508060000b6000145b6110a1576000610ff983820b88830b611482565b9050600061100b83820b88830b611482565b905060008260010b1215801561102b5750885460ff1660000b600183900b125b801561103b575060008160010b12155b801561105657508854610100900460ff1660000b600182900b125b1561109e578854600090839061106f9060ff1684611307565b61107991906113b3565b90506110898a6002015482610f9a565b1561109c5785611098816114a5565b9650505b505b50505b806110ab816114c4565b915050610fc4565b50806110be816114c4565b915050610fb5565b50949350505050565b600080805b8361ffff168161ffff161015611116578061ffff1685901c60011660010361110457816111008161146b565b9250505b8061110e8161146b565b9150506110d4565b509392505050565b60006020828403121561113057600080fd5b81356001600160a01b038116811461114757600080fd5b9392505050565b634e487b7160e01b600052602160045260246000fd5b6004811061118257634e487b7160e01b600052602160045260246000fd5b9052565b60ff8a811682528916602082015261ffff8816604082015261012081016111b06060830189611164565b63ffffffff96871660808301529490951660a086015260c085019290925260e0840152151561010090920191909152949350505050565b803560ff811681146111f857600080fd5b919050565b60008060006060848603121561121257600080fd5b61121b846111e7565b9250611229602085016111e7565b9150604084013561ffff8116811461124057600080fd5b809150509250925092565b6000806040838503121561125e57600080fd5b611267836111e7565b9150611275602084016111e7565b90509250929050565b60ff8c811682528b16602082015261ffff8a166040820152606081018990526080810188905261016081016112b660a0830189611164565b63ffffffff96871660c08301529490951660e08601526101008501929092526101208401521515610140909201919091529695505050505050565b634e487b7160e01b600052601160045260246000fd5b61ffff818116838216028082169190828114611325576113256112f1565b505092915050565b634e487b7160e01b600052601260045260246000fd5b600061ffff808416806113585761135861132d565b92169190910492915050565b600063ffffffff80831681810361137d5761137d6112f1565b6001019392505050565b602080825260129082015271496e76616c696420636f6f7264696e61746560701b604082015260600190565b61ffff8181168382160190808211156113ce576113ce6112f1565b5092915050565b63ffffffff8181168382160190808211156113ce576113ce6112f1565b61ffff8281168282160390808211156113ce576113ce6112f1565b63ffffffff818116838216028082169190828114611325576113256112f1565b600063ffffffff808416806113585761135861132d565b81810381811115610fa857610fa86112f1565b6000826114665761146661132d565b500690565b600061ffff80831681810361137d5761137d6112f1565b600181810b9083900b01617fff8113617fff1982121715610fa857610fa86112f1565b600060ff821660ff81036114bb576114bb6112f1565b60010192915050565b60008160000b607f81036114bb576114bb6112f156fea264697066735822122049d130009a4a65af024b3de29c4e039a43c7a9631ff94666f2b3a4f4bc30464364736f6c63430008130033","opcodes":"PUSH1 0x80 PUSH1 0x40 MSTORE CALLVALUE DUP1 ISZERO PUSH2 0x10 JUMPI PUSH1 0x0 DUP1 REVERT JUMPDEST POP PUSH2 0x1510 DUP1 PUSH2 0x20 PUSH1 0x0 CODECOPY PUSH1 0x0 RETURN INVALID PUSH1 0x80 PUSH1 0x40 MSTORE CALLVALUE DUP1 ISZERO PUSH2 0x10 JUMPI PUSH1 0x0 DUP1 REVERT JUMPDEST POP PUSH1 0x4 CALLDATASIZE LT PUSH2 0xFF JUMPI PUSH1 0x0 CALLDATALOAD PUSH1 0xE0 SHR DUP1 PUSH4 0x79131A19 GT PUSH2 0x97 JUMPI DUP1 PUSH4 0x9663CCF1 GT PUSH2 0x66 JUMPI DUP1 PUSH4 0x9663CCF1 EQ PUSH2 0x30D JUMPI DUP1 PUSH4 0x9EE905C1 EQ PUSH2 0x333 JUMPI DUP1 PUSH4 0xBC877D75 EQ PUSH2 0x33B JUMPI DUP1 PUSH4 0xFF09BBAF EQ PUSH2 0x35E JUMPI PUSH1 0x0 DUP1 REVERT JUMPDEST DUP1 PUSH4 0x79131A19 EQ PUSH2 0x229 JUMPI DUP1 PUSH4 0x7D64B8C5 EQ PUSH2 0x2BA JUMPI DUP1 PUSH4 0x847A5E99 EQ PUSH2 0x2CD JUMPI DUP1 PUSH4 0x8D67799E EQ PUSH2 0x305 JUMPI PUSH1 0x0 DUP1 REVERT JUMPDEST DUP1 PUSH4 0x45DCD02C GT PUSH2 0xD3 JUMPI DUP1 PUSH4 0x45DCD02C EQ PUSH2 0x1CE JUMPI DUP1 PUSH4 0x46ED7144 EQ PUSH2 0x1E8 JUMPI DUP1 PUSH4 0x4CB57892 EQ PUSH2 0x1F0 JUMPI DUP1 PUSH4 0x54BD5023 EQ PUSH2 0x203 JUMPI PUSH1 0x0 DUP1 REVERT JUMPDEST DUP1 PUSH3 0xD8E104 EQ PUSH2 0x104 JUMPI DUP1 PUSH4 0x1746BD1B EQ PUSH2 0x144 JUMPI DUP1 PUSH4 0x31F5A015 EQ PUSH2 0x1B1 JUMPI DUP1 PUSH4 0x3A6F6B38 EQ PUSH2 0x1C6 JUMPI JUMPDEST PUSH1 0x0 DUP1 REVERT JUMPDEST PUSH2 0x12A PUSH2 0x112 CALLDATASIZE PUSH1 0x4 PUSH2 0x111E JUMP JUMPDEST PUSH1 0x1 PUSH1 0x20 MSTORE PUSH1 0x0 SWAP1 DUP2 MSTORE PUSH1 0x40 SWAP1 KECCAK256 SLOAD PUSH4 0xFFFFFFFF AND DUP2 JUMP JUMPDEST PUSH1 0x40 MLOAD PUSH4 0xFFFFFFFF SWAP1 SWAP2 AND DUP2 MSTORE PUSH1 0x20 ADD JUMPDEST PUSH1 0x40 MLOAD DUP1 SWAP2 SUB SWAP1 RETURN JUMPDEST CALLER PUSH1 0x0 SWAP1 DUP2 MSTORE PUSH1 0x20 DUP2 SWAP1 MSTORE PUSH1 0x40 SWAP1 DUP2 SWAP1 KECCAK256 DUP1 SLOAD PUSH1 0x3 DUP3 ADD SLOAD PUSH1 0x4 DUP4 ADD SLOAD PUSH1 0x5 DUP5 ADD SLOAD PUSH1 0x6 SWAP1 SWAP5 ADD SLOAD SWAP5 MLOAD PUSH2 0x13B SWAP6 PUSH1 0xFF DUP1 DUP7 AND SWAP7 PUSH2 0x100 DUP1 DUP9 DIV DUP4 AND SWAP8 PUSH3 0x10000 SWAP1 DIV PUSH2 0xFFFF AND SWAP7 DUP4 DUP2 AND SWAP7 SWAP2 DUP2 DIV PUSH4 0xFFFFFFFF SWAP1 DUP2 AND SWAP7 PUSH1 0x1 PUSH1 0x28 SHL SWAP1 SWAP3 DIV AND SWAP5 SWAP2 SWAP4 SWAP1 SWAP2 AND SWAP1 PUSH2 0x1186 JUMP JUMPDEST PUSH2 0x1C4 PUSH2 0x1BF CALLDATASIZE PUSH1 0x4 PUSH2 0x11FD JUMP JUMPDEST PUSH2 0x366 JUMP JUMPDEST STOP JUMPDEST PUSH2 0x12A PUSH1 0x5 DUP2 JUMP JUMPDEST PUSH2 0x1D6 PUSH1 0x5 DUP2 JUMP JUMPDEST PUSH1 0x40 MLOAD PUSH1 0xFF SWAP1 SWAP2 AND DUP2 MSTORE PUSH1 0x20 ADD PUSH2 0x13B JUMP JUMPDEST PUSH2 0x1D6 PUSH1 0xA DUP2 JUMP JUMPDEST PUSH2 0x1D6 PUSH2 0x1FE CALLDATASIZE PUSH1 0x4 PUSH2 0x124B JUMP JUMPDEST PUSH2 0x697 JUMP JUMPDEST PUSH2 0x12A PUSH2 0x211 CALLDATASIZE PUSH1 0x4 PUSH2 0x111E JUMP JUMPDEST PUSH1 0x3 PUSH1 0x20 MSTORE PUSH1 0x0 SWAP1 DUP2 MSTORE PUSH1 0x40 SWAP1 KECCAK256 SLOAD PUSH4 0xFFFFFFFF AND DUP2 JUMP JUMPDEST PUSH2 0x2A3 PUSH2 0x237 CALLDATASIZE PUSH1 0x4 PUSH2 0x111E JUMP JUMPDEST PUSH1 0x0 PUSH1 0x20 DUP2 SWAP1 MSTORE SWAP1 DUP2 MSTORE PUSH1 0x40 SWAP1 KECCAK256 DUP1 SLOAD PUSH1 0x1 DUP3 ADD SLOAD PUSH1 0x2 DUP4 ADD SLOAD PUSH1 0x3 DUP5 ADD SLOAD PUSH1 0x4 DUP6 ADD SLOAD PUSH1 0x5 DUP7 ADD SLOAD PUSH1 0x6 SWAP1 SWAP7 ADD SLOAD PUSH1 0xFF DUP1 DUP8 AND SWAP8 PUSH2 0x100 DUP1 DUP10 DIV DUP4 AND SWAP9 PUSH3 0x10000 SWAP1 DIV PUSH2 0xFFFF AND SWAP8 SWAP7 SWAP6 DUP4 DUP2 AND SWAP6 SWAP2 DUP2 DIV PUSH4 0xFFFFFFFF SWAP1 DUP2 AND SWAP6 PUSH1 0x1 PUSH1 0x28 SHL SWAP1 SWAP3 DIV AND SWAP4 SWAP2 SWAP3 SWAP2 AND DUP12 JUMP JUMPDEST PUSH1 0x40 MLOAD PUSH2 0x13B SWAP12 SWAP11 SWAP10 SWAP9 SWAP8 SWAP7 SWAP6 SWAP5 SWAP4 SWAP3 SWAP2 SWAP1 PUSH2 0x127E JUMP JUMPDEST PUSH2 0x1C4 PUSH2 0x2C8 CALLDATASIZE PUSH1 0x4 PUSH2 0x124B JUMP JUMPDEST PUSH2 0x783 JUMP JUMPDEST PUSH2 0x2D5 PUSH2 0xD76 JUMP JUMPDEST PUSH1 0x40 DUP1 MLOAD PUSH4 0xFFFFFFFF SWAP6 DUP7 AND DUP2 MSTORE SWAP4 DUP6 AND PUSH1 0x20 DUP6 ADD MSTORE SWAP2 SWAP1 SWAP4 AND SWAP1 DUP3 ADD MSTORE PUSH1 0xFF SWAP1 SWAP2 AND PUSH1 0x60 DUP3 ADD MSTORE PUSH1 0x80 ADD PUSH2 0x13B JUMP JUMPDEST PUSH2 0x1D6 PUSH1 0x14 DUP2 JUMP JUMPDEST PUSH2 0x12A PUSH2 0x31B CALLDATASIZE PUSH1 0x4 PUSH2 0x111E JUMP JUMPDEST PUSH1 0x2 PUSH1 0x20 MSTORE PUSH1 0x0 SWAP1 DUP2 MSTORE PUSH1 0x40 SWAP1 KECCAK256 SLOAD PUSH4 0xFFFFFFFF AND DUP2 JUMP JUMPDEST PUSH2 0x12A PUSH1 0x1 DUP2 JUMP JUMPDEST PUSH2 0x34E PUSH2 0x349 CALLDATASIZE PUSH1 0x4 PUSH2 0x124B JUMP JUMPDEST PUSH2 0xDEB JUMP JUMPDEST PUSH1 0x40 MLOAD SWAP1 ISZERO ISZERO DUP2 MSTORE PUSH1 0x20 ADD PUSH2 0x13B JUMP JUMPDEST PUSH2 0x1D6 PUSH1 0x1E DUP2 JUMP JUMPDEST PUSH1 0x5 PUSH1 0xFF DUP5 AND LT DUP1 ISZERO SWAP1 PUSH2 0x37E JUMPI POP PUSH1 0x14 PUSH1 0xFF DUP5 AND GT ISZERO JUMPDEST PUSH2 0x3BF JUMPI PUSH1 0x40 MLOAD PUSH3 0x461BCD PUSH1 0xE5 SHL DUP2 MSTORE PUSH1 0x20 PUSH1 0x4 DUP3 ADD MSTORE PUSH1 0xD PUSH1 0x24 DUP3 ADD MSTORE PUSH13 0x92DCECC2D8D2C840EED2C8E8D PUSH1 0x9B SHL PUSH1 0x44 DUP3 ADD MSTORE PUSH1 0x64 ADD JUMPDEST PUSH1 0x40 MLOAD DUP1 SWAP2 SUB SWAP1 REVERT JUMPDEST PUSH1 0x5 PUSH1 0xFF DUP4 AND LT DUP1 ISZERO SWAP1 PUSH2 0x3D7 JUMPI POP PUSH1 0x14 PUSH1 0xFF DUP4 AND GT ISZERO JUMPDEST PUSH2 0x414 JUMPI PUSH1 0x40 MLOAD PUSH3 0x461BCD PUSH1 0xE5 SHL DUP2 MSTORE PUSH1 0x20 PUSH1 0x4 DUP3 ADD MSTORE PUSH1 0xE PUSH1 0x24 DUP3 ADD MSTORE PUSH14 0x125B9D985B1A59081A195A59DA1D PUSH1 0x92 SHL PUSH1 0x44 DUP3 ADD MSTORE PUSH1 0x64 ADD PUSH2 0x3B6 JUMP JUMPDEST PUSH1 0x0 PUSH2 0x426 PUSH1 0xFF DUP1 DUP6 AND SWAP1 DUP7 AND PUSH2 0x1307 JUMP JUMPDEST SWAP1 POP PUSH1 0x0 PUSH1 0x64 PUSH2 0x437 PUSH1 0xA DUP5 PUSH2 0x1307 JUMP JUMPDEST PUSH2 0x441 SWAP2 SWAP1 PUSH2 0x1343 JUMP JUMPDEST SWAP1 POP PUSH1 0x0 PUSH1 0x64 PUSH2 0x452 PUSH1 0x1E DUP6 PUSH2 0x1307 JUMP JUMPDEST PUSH2 0x45C SWAP2 SWAP1 PUSH2 0x1343 JUMP JUMPDEST SWAP1 POP DUP2 PUSH2 0xFFFF AND DUP5 PUSH2 0xFFFF AND LT ISZERO DUP1 ISZERO PUSH2 0x47E JUMPI POP DUP1 PUSH2 0xFFFF AND DUP5 PUSH2 0xFFFF AND GT ISZERO JUMPDEST PUSH2 0x4BF JUMPI PUSH1 0x40 MLOAD PUSH3 0x461BCD PUSH1 0xE5 SHL DUP2 MSTORE PUSH1 0x20 PUSH1 0x4 DUP3 ADD MSTORE PUSH1 0x12 PUSH1 0x24 DUP3 ADD MSTORE PUSH18 0x125B9D985B1A59081B5A5B994818DBDD5B9D PUSH1 0x72 SHL PUSH1 0x44 DUP3 ADD MSTORE PUSH1 0x64 ADD PUSH2 0x3B6 JUMP JUMPDEST DUP3 PUSH2 0xFFFF AND DUP5 PUSH2 0xFFFF AND LT PUSH2 0x507 JUMPI PUSH1 0x40 MLOAD PUSH3 0x461BCD PUSH1 0xE5 SHL DUP2 MSTORE PUSH1 0x20 PUSH1 0x4 DUP3 ADD MSTORE PUSH1 0xE PUSH1 0x24 DUP3 ADD MSTORE PUSH14 0x546F6F206D616E79206D696E6573 PUSH1 0x90 SHL PUSH1 0x44 DUP3 ADD MSTORE PUSH1 0x64 ADD PUSH2 0x3B6 JUMP JUMPDEST CALLER PUSH1 0x0 SWAP1 DUP2 MSTORE PUSH1 0x20 DUP2 SWAP1 MSTORE PUSH1 0x40 SWAP1 KECCAK256 PUSH1 0x6 ADD SLOAD PUSH1 0xFF AND DUP1 ISZERO PUSH2 0x550 JUMPI POP PUSH1 0x1 CALLER PUSH1 0x0 SWAP1 DUP2 MSTORE PUSH1 0x20 DUP2 SWAP1 MSTORE PUSH1 0x40 SWAP1 KECCAK256 PUSH1 0x3 SWAP1 DUP2 ADD SLOAD PUSH1 0xFF AND SWAP1 DUP2 GT ISZERO PUSH2 0x54E JUMPI PUSH2 0x54E PUSH2 0x114E JUMP JUMPDEST EQ JUMPDEST ISZERO PUSH2 0x575 JUMPI CALLER PUSH1 0x0 SWAP1 DUP2 MSTORE PUSH1 0x20 DUP2 SWAP1 MSTORE PUSH1 0x40 SWAP1 KECCAK256 PUSH1 0x3 SWAP1 DUP2 ADD DUP1 SLOAD PUSH1 0xFF NOT AND SWAP1 SWAP2 OR SWAP1 SSTORE JUMPDEST CALLER PUSH1 0x0 SWAP1 DUP2 MSTORE PUSH1 0x20 DUP2 SWAP1 MSTORE PUSH1 0x40 DUP2 KECCAK256 DUP1 SLOAD PUSH1 0xFF DUP10 DUP2 AND PUSH2 0xFFFF NOT SWAP1 SWAP3 AND SWAP2 SWAP1 SWAP2 OR PUSH2 0x100 SWAP2 DUP10 AND SWAP2 SWAP1 SWAP2 MUL OR PUSH4 0xFFFF0000 NOT AND PUSH3 0x10000 PUSH2 0xFFFF DUP9 AND MUL OR DUP2 SSTORE PUSH1 0x1 DUP1 DUP3 ADD DUP4 SWAP1 SSTORE PUSH1 0x2 DUP3 ADD DUP4 SWAP1 SSTORE PUSH1 0x3 DUP3 ADD DUP1 SLOAD PUSH9 0xFFFFFFFFFFFFFFFFFF NOT AND DUP3 OR SWAP1 SSTORE TIMESTAMP PUSH1 0x4 DUP4 ADD SSTORE PUSH1 0x5 DUP3 ADD SWAP3 SWAP1 SWAP3 SSTORE PUSH1 0x6 DUP2 ADD DUP1 SLOAD PUSH1 0xFF NOT AND SWAP1 SWAP3 OR SWAP1 SWAP2 SSTORE PUSH2 0x602 DUP2 DUP6 PUSH2 0xE80 JUMP JUMPDEST CALLER PUSH1 0x0 SWAP1 DUP2 MSTORE PUSH1 0x2 PUSH1 0x20 MSTORE PUSH1 0x40 DUP2 KECCAK256 DUP1 SLOAD PUSH4 0xFFFFFFFF AND SWAP2 PUSH2 0x623 DUP4 PUSH2 0x1364 JUMP JUMPDEST DUP3 SLOAD PUSH2 0x100 SWAP3 SWAP1 SWAP3 EXP PUSH4 0xFFFFFFFF DUP2 DUP2 MUL NOT SWAP1 SWAP4 AND SWAP2 SWAP1 SWAP3 AND SWAP2 SWAP1 SWAP2 MUL OR SWAP1 SSTORE POP PUSH1 0x40 DUP1 MLOAD PUSH1 0xFF DUP10 DUP2 AND DUP3 MSTORE DUP9 AND PUSH1 0x20 DUP3 ADD MSTORE PUSH2 0xFFFF DUP8 AND DUP2 DUP4 ADD MSTORE SWAP1 MLOAD CALLER SWAP2 PUSH32 0x4139233F315F5FADEA5D2225800418D97CC3A4B36F5ABEA7CFD327517E4A4F40 SWAP2 SWAP1 DUP2 SWAP1 SUB PUSH1 0x60 ADD SWAP1 LOG2 POP POP POP POP POP POP POP JUMP JUMPDEST CALLER PUSH1 0x0 SWAP1 DUP2 MSTORE PUSH1 0x20 DUP2 SWAP1 MSTORE PUSH1 0x40 DUP2 KECCAK256 DUP1 SLOAD DUP5 SWAP2 DUP5 SWAP2 PUSH1 0xFF SWAP1 DUP2 AND SWAP1 DUP5 AND LT DUP1 ISZERO PUSH2 0x6CD JUMPI POP DUP1 SLOAD PUSH1 0xFF PUSH2 0x100 SWAP1 SWAP2 DIV DUP2 AND SWAP1 DUP4 AND LT JUMPDEST PUSH2 0x6E9 JUMPI PUSH1 0x40 MLOAD PUSH3 0x461BCD PUSH1 0xE5 SHL DUP2 MSTORE PUSH1 0x4 ADD PUSH2 0x3B6 SWAP1 PUSH2 0x1387 JUMP JUMPDEST CALLER PUSH1 0x0 SWAP1 DUP2 MSTORE PUSH1 0x20 DUP2 SWAP1 MSTORE PUSH1 0x40 DUP2 KECCAK256 DUP1 SLOAD SWAP1 SWAP2 SWAP1 PUSH1 0xFF DUP1 DUP11 AND SWAP2 PUSH2 0x712 SWAP2 SWAP1 DUP2 AND SWAP1 DUP11 AND PUSH2 0x1307 JUMP JUMPDEST PUSH2 0x71C SWAP2 SWAP1 PUSH2 0x13B3 JUMP JUMPDEST SWAP1 POP PUSH2 0x72C DUP3 PUSH1 0x1 ADD SLOAD DUP3 PUSH2 0xF9A JUMP JUMPDEST PUSH2 0x76C JUMPI PUSH1 0x40 MLOAD PUSH3 0x461BCD PUSH1 0xE5 SHL DUP2 MSTORE PUSH1 0x20 PUSH1 0x4 DUP3 ADD MSTORE PUSH1 0x11 PUSH1 0x24 DUP3 ADD MSTORE PUSH17 0x10D95B1B081B9BDD081C995D99585B1959 PUSH1 0x7A SHL PUSH1 0x44 DUP3 ADD MSTORE PUSH1 0x64 ADD PUSH2 0x3B6 JUMP JUMPDEST PUSH2 0x777 DUP3 DUP10 DUP10 PUSH2 0xFAE JUMP JUMPDEST SWAP9 SWAP8 POP POP POP POP POP POP POP POP JUMP JUMPDEST CALLER PUSH1 0x0 SWAP1 DUP2 MSTORE PUSH1 0x20 DUP2 SWAP1 MSTORE PUSH1 0x40 SWAP1 KECCAK256 PUSH1 0x6 ADD SLOAD PUSH1 0xFF AND PUSH2 0x7DC JUMPI PUSH1 0x40 MLOAD PUSH3 0x461BCD PUSH1 0xE5 SHL DUP2 MSTORE PUSH1 0x20 PUSH1 0x4 DUP3 ADD MSTORE PUSH1 0x14 PUSH1 0x24 DUP3 ADD MSTORE PUSH20 0x11D85B59481B9BDD081A5B9A5D1A585B1A5E9959 PUSH1 0x62 SHL PUSH1 0x44 DUP3 ADD MSTORE PUSH1 0x64 ADD PUSH2 0x3B6 JUMP JUMPDEST PUSH1 0x1 CALLER PUSH1 0x0 SWAP1 DUP2 MSTORE PUSH1 0x20 DUP2 SWAP1 MSTORE PUSH1 0x40 SWAP1 KECCAK256 PUSH1 0x3 SWAP1 DUP2 ADD SLOAD PUSH1 0xFF AND SWAP1 DUP2 GT ISZERO PUSH2 0x806 JUMPI PUSH2 0x806 PUSH2 0x114E JUMP JUMPDEST EQ PUSH2 0x84A JUMPI PUSH1 0x40 MLOAD PUSH3 0x461BCD PUSH1 0xE5 SHL DUP2 MSTORE PUSH1 0x20 PUSH1 0x4 DUP3 ADD MSTORE PUSH1 0x14 PUSH1 0x24 DUP3 ADD MSTORE PUSH20 0x47616D65206E6F7420696E2070726F6772657373 PUSH1 0x60 SHL PUSH1 0x44 DUP3 ADD MSTORE PUSH1 0x64 ADD PUSH2 0x3B6 JUMP JUMPDEST CALLER PUSH1 0x0 SWAP1 DUP2 MSTORE PUSH1 0x20 DUP2 SWAP1 MSTORE PUSH1 0x40 SWAP1 KECCAK256 DUP1 SLOAD DUP4 SWAP2 DUP4 SWAP2 PUSH1 0xFF SWAP1 DUP2 AND SWAP1 DUP5 AND LT DUP1 ISZERO PUSH2 0x880 JUMPI POP DUP1 SLOAD PUSH1 0xFF PUSH2 0x100 SWAP1 SWAP2 DIV DUP2 AND SWAP1 DUP4 AND LT JUMPDEST PUSH2 0x89C JUMPI PUSH1 0x40 MLOAD PUSH3 0x461BCD PUSH1 0xE5 SHL DUP2 MSTORE PUSH1 0x4 ADD PUSH2 0x3B6 SWAP1 PUSH2 0x1387 JUMP JUMPDEST CALLER PUSH1 0x0 SWAP1 DUP2 MSTORE PUSH1 0x20 DUP2 SWAP1 MSTORE PUSH1 0x40 DUP2 KECCAK256 DUP1 SLOAD SWAP1 SWAP2 SWAP1 PUSH1 0xFF DUP1 DUP10 AND SWAP2 PUSH2 0x8C5 SWAP2 SWAP1 DUP2 AND SWAP1 DUP10 AND PUSH2 0x1307 JUMP JUMPDEST PUSH2 0x8CF SWAP2 SWAP1 PUSH2 0x13B3 JUMP JUMPDEST SWAP1 POP PUSH2 0x8DF DUP3 PUSH1 0x1 ADD SLOAD DUP3 PUSH2 0xF9A JUMP JUMPDEST ISZERO PUSH2 0x924 JUMPI PUSH1 0x40 MLOAD PUSH3 0x461BCD PUSH1 0xE5 SHL DUP2 MSTORE PUSH1 0x20 PUSH1 0x4 DUP3 ADD MSTORE PUSH1 0x15 PUSH1 0x24 DUP3 ADD MSTORE PUSH21 0x10D95B1B08185B1C9958591E481C995D99585B1959 PUSH1 0x5A SHL PUSH1 0x44 DUP3 ADD MSTORE PUSH1 0x64 ADD PUSH2 0x3B6 JUMP JUMPDEST PUSH1 0x3 DUP3 ADD DUP1 SLOAD PUSH1 0x1 PUSH1 0x28 SHL SWAP1 DIV PUSH4 0xFFFFFFFF AND SWAP1 PUSH1 0x5 PUSH2 0x943 DUP4 PUSH2 0x1364 JUMP JUMPDEST SWAP2 SWAP1 PUSH2 0x100 EXP DUP2 SLOAD DUP2 PUSH4 0xFFFFFFFF MUL NOT AND SWAP1 DUP4 PUSH4 0xFFFFFFFF AND MUL OR SWAP1 SSTORE POP POP PUSH1 0x0 PUSH2 0x972 DUP4 PUSH1 0x2 ADD SLOAD DUP4 PUSH2 0xF9A JUMP JUMPDEST SWAP1 POP DUP1 ISZERO PUSH2 0x9E9 JUMPI PUSH1 0x3 DUP4 DUP2 ADD DUP1 SLOAD PUSH1 0xFF NOT AND SWAP1 SWAP2 OR SWAP1 DUP2 SWAP1 SSTORE TIMESTAMP PUSH1 0x5 DUP6 ADD SSTORE PUSH1 0x40 DUP1 MLOAD PUSH1 0xFF DUP12 DUP2 AND DUP3 MSTORE DUP11 AND PUSH1 0x20 DUP3 ADD MSTORE PUSH1 0x1 PUSH1 0x28 SHL SWAP1 SWAP3 DIV PUSH4 0xFFFFFFFF AND DUP3 DUP3 ADD MSTORE MLOAD CALLER SWAP2 PUSH32 0x853901FCFA6BBF65A18067C3E739348107597A4E7599D39ED131EA1763670EE9 SWAP2 SWAP1 DUP2 SWAP1 SUB PUSH1 0x60 ADD SWAP1 LOG2 PUSH2 0xD6C JUMP JUMPDEST PUSH1 0x1 DUP4 DUP2 ADD DUP1 SLOAD PUSH2 0xFFFF DUP6 AND DUP4 SWAP1 SHL OR SWAP1 SSTORE PUSH1 0x3 DUP5 ADD DUP1 SLOAD DUP3 SWAP1 PUSH2 0xA19 SWAP1 DUP3 SWAP1 PUSH2 0x100 SWAP1 DIV PUSH4 0xFFFFFFFF AND PUSH2 0x13D5 JUMP JUMPDEST SWAP3 POP PUSH2 0x100 EXP DUP2 SLOAD DUP2 PUSH4 0xFFFFFFFF MUL NOT AND SWAP1 DUP4 PUSH4 0xFFFFFFFF AND MUL OR SWAP1 SSTORE POP PUSH1 0x0 PUSH2 0xA44 DUP5 DUP11 DUP11 PUSH2 0xFAE JUMP JUMPDEST PUSH1 0x40 DUP1 MLOAD PUSH1 0xFF DUP13 DUP2 AND DUP3 MSTORE DUP12 DUP2 AND PUSH1 0x20 DUP4 ADD MSTORE PUSH1 0x0 DUP3 DUP5 ADD MSTORE DUP4 AND PUSH1 0x60 DUP3 ADD MSTORE SWAP1 MLOAD SWAP2 SWAP3 POP CALLER SWAP2 PUSH32 0xBC79A06EE6795CAFB335143FBB8FE00FC6DEE78275CA5DF9BBB1836A3B11F7A SWAP2 DUP2 SWAP1 SUB PUSH1 0x80 ADD SWAP1 LOG2 DUP4 SLOAD PUSH1 0x0 SWAP1 PUSH2 0xAAE SWAP1 PUSH1 0xFF PUSH2 0x100 DUP3 DIV DUP2 AND SWAP2 AND PUSH2 0x1307 JUMP JUMPDEST SWAP1 POP PUSH1 0x0 PUSH2 0xAC0 DUP7 PUSH1 0x1 ADD SLOAD DUP4 PUSH2 0x10CF JUMP JUMPDEST DUP7 SLOAD SWAP1 SWAP2 POP PUSH2 0xAD9 SWAP1 PUSH3 0x10000 SWAP1 DIV PUSH2 0xFFFF AND DUP4 PUSH2 0x13F2 JUMP JUMPDEST PUSH2 0xFFFF AND DUP2 PUSH2 0xFFFF AND SUB PUSH2 0xD68 JUMPI PUSH1 0x3 DUP7 ADD DUP1 SLOAD PUSH1 0xFF NOT AND PUSH1 0x2 OR DUP1 DUP3 SSTORE TIMESTAMP PUSH1 0x5 DUP1 DUP11 ADD SWAP2 SWAP1 SWAP2 SSTORE SWAP2 SWAP1 PUSH1 0x1 SWAP1 PUSH2 0xB1D SWAP1 DUP5 SWAP1 PUSH4 0xFFFFFFFF PUSH2 0x100 SWAP1 SWAP2 DIV AND PUSH2 0x13D5 JUMP JUMPDEST SWAP3 POP PUSH2 0x100 EXP DUP2 SLOAD DUP2 PUSH4 0xFFFFFFFF MUL NOT AND SWAP1 DUP4 PUSH4 0xFFFFFFFF AND MUL OR SWAP1 SSTORE POP PUSH1 0x0 DUP3 DUP8 PUSH1 0x0 ADD PUSH1 0x2 SWAP1 SLOAD SWAP1 PUSH2 0x100 EXP SWAP1 DIV PUSH2 0xFFFF AND PUSH1 0x64 PUSH2 0xB5D SWAP2 SWAP1 PUSH2 0x1307 JUMP JUMPDEST PUSH2 0xB67 SWAP2 SWAP1 PUSH2 0x1343 JUMP JUMPDEST SWAP1 POP PUSH1 0x19 DUP2 PUSH2 0xFFFF AND LT PUSH2 0xBC4 JUMPI PUSH1 0x3 DUP8 DUP2 ADD SLOAD PUSH1 0x2 SWAP2 PUSH2 0xB93 SWAP2 PUSH2 0x100 SWAP1 DIV PUSH4 0xFFFFFFFF AND SWAP1 PUSH2 0x140D JUMP JUMPDEST PUSH2 0xB9D SWAP2 SWAP1 PUSH2 0x142D JUMP JUMPDEST DUP8 PUSH1 0x3 ADD PUSH1 0x1 PUSH2 0x100 EXP DUP2 SLOAD DUP2 PUSH4 0xFFFFFFFF MUL NOT AND SWAP1 DUP4 PUSH4 0xFFFFFFFF AND MUL OR SWAP1 SSTORE POP PUSH2 0xC1B JUMP JUMPDEST PUSH1 0x14 DUP2 PUSH2 0xFFFF AND LT PUSH2 0xC1B JUMPI PUSH1 0x3 DUP8 ADD SLOAD PUSH1 0x4 SWAP1 PUSH2 0xBEE SWAP1 PUSH2 0x100 SWAP1 DIV PUSH4 0xFFFFFFFF AND PUSH1 0x5 PUSH2 0x140D JUMP JUMPDEST PUSH2 0xBF8 SWAP2 SWAP1 PUSH2 0x142D JUMP JUMPDEST DUP8 PUSH1 0x3 ADD PUSH1 0x1 PUSH2 0x100 EXP DUP2 SLOAD DUP2 PUSH4 0xFFFFFFFF MUL NOT AND SWAP1 DUP4 PUSH4 0xFFFFFFFF AND MUL OR SWAP1 SSTORE POP JUMPDEST CALLER PUSH1 0x0 SWAP1 DUP2 MSTORE PUSH1 0x3 PUSH1 0x20 MSTORE PUSH1 0x40 DUP2 KECCAK256 DUP1 SLOAD PUSH4 0xFFFFFFFF AND SWAP2 PUSH2 0xC3C DUP4 PUSH2 0x1364 JUMP JUMPDEST DUP3 SLOAD PUSH4 0xFFFFFFFF SWAP2 DUP3 AND PUSH2 0x100 SWAP4 DUP5 EXP SWAP1 DUP2 MUL SWAP1 DUP4 MUL NOT SWAP1 SWAP2 AND OR SWAP1 SWAP3 SSTORE CALLER PUSH1 0x0 SWAP1 DUP2 MSTORE PUSH1 0x1 PUSH1 0x20 MSTORE PUSH1 0x40 SWAP1 KECCAK256 SLOAD PUSH1 0x3 DUP12 ADD SLOAD SWAP1 DUP4 AND SWAP2 SWAP1 DIV SWAP1 SWAP2 AND GT ISZERO SWAP1 POP PUSH2 0xCF1 JUMPI PUSH1 0x3 DUP8 ADD DUP1 SLOAD CALLER PUSH1 0x0 DUP2 DUP2 MSTORE PUSH1 0x1 PUSH1 0x20 SWAP1 DUP2 MSTORE PUSH1 0x40 SWAP2 DUP3 SWAP1 KECCAK256 DUP1 SLOAD PUSH4 0xFFFFFFFF NOT AND PUSH4 0xFFFFFFFF PUSH2 0x100 SWAP7 DUP8 SWAP1 DIV DUP2 AND SWAP2 SWAP1 SWAP2 OR SWAP1 SWAP2 SSTORE SWAP5 SLOAD SWAP2 MLOAD SWAP4 SWAP1 SWAP2 DIV SWAP1 SWAP4 AND DUP3 MSTORE SWAP2 PUSH32 0xDAD5EC4A6E9B302423C6C3B02B075FF07A0267E83E619498A9D9EC9643958EDB SWAP2 ADD PUSH1 0x40 MLOAD DUP1 SWAP2 SUB SWAP1 LOG2 JUMPDEST PUSH1 0x0 DUP8 PUSH1 0x4 ADD SLOAD DUP9 PUSH1 0x5 ADD SLOAD PUSH2 0xD07 SWAP2 SWAP1 PUSH2 0x1444 JUMP JUMPDEST PUSH1 0x3 DUP10 ADD SLOAD PUSH1 0x40 DUP1 MLOAD PUSH4 0xFFFFFFFF PUSH2 0x100 DUP5 DIV DUP2 AND DUP3 MSTORE PUSH1 0x1 PUSH1 0x28 SHL SWAP1 SWAP4 DIV SWAP1 SWAP3 AND PUSH1 0x20 DUP4 ADD MSTORE DUP2 ADD DUP3 SWAP1 MSTORE SWAP1 SWAP2 POP CALLER SWAP1 PUSH32 0xBD60E1874FF6702F60F69BD3CA8831FB865CE678B446EF6D30F7E61EE5F790F3 SWAP1 PUSH1 0x60 ADD PUSH1 0x40 MLOAD DUP1 SWAP2 SUB SWAP1 LOG2 POP POP JUMPDEST POP POP POP JUMPDEST POP POP POP POP POP POP POP POP JUMP JUMPDEST CALLER PUSH1 0x0 SWAP1 DUP2 MSTORE PUSH1 0x2 PUSH1 0x20 SWAP1 DUP2 MSTORE PUSH1 0x40 DUP1 DUP4 KECCAK256 SLOAD PUSH1 0x3 SWAP1 SWAP3 MSTORE DUP3 KECCAK256 SLOAD DUP3 SWAP2 DUP3 SWAP2 DUP3 SWAP2 PUSH4 0xFFFFFFFF SWAP1 DUP2 AND SWAP2 AND DUP3 DUP3 PUSH2 0xDAE JUMPI PUSH1 0x0 PUSH2 0xDC4 JUMP JUMPDEST DUP3 PUSH2 0xDBA DUP4 PUSH1 0x64 PUSH2 0x140D JUMP JUMPDEST PUSH2 0xDC4 SWAP2 SWAP1 PUSH2 0x142D JUMP JUMPDEST CALLER PUSH1 0x0 SWAP1 DUP2 MSTORE PUSH1 0x1 PUSH1 0x20 MSTORE PUSH1 0x40 SWAP1 KECCAK256 SLOAD SWAP4 SWAP9 SWAP3 SWAP8 POP PUSH4 0xFFFFFFFF SWAP1 SWAP4 AND SWAP6 POP SWAP2 SWAP4 POP SWAP2 POP POP JUMP JUMPDEST CALLER PUSH1 0x0 SWAP1 DUP2 MSTORE PUSH1 0x20 DUP2 SWAP1 MSTORE PUSH1 0x40 DUP2 KECCAK256 DUP1 SLOAD DUP5 SWAP2 DUP5 SWAP2 PUSH1 0xFF SWAP1 DUP2 AND SWAP1 DUP5 AND LT DUP1 ISZERO PUSH2 0xE21 JUMPI POP DUP1 SLOAD PUSH1 0xFF PUSH2 0x100 SWAP1 SWAP2 DIV DUP2 AND SWAP1 DUP4 AND LT JUMPDEST PUSH2 0xE3D JUMPI PUSH1 0x40 MLOAD PUSH3 0x461BCD PUSH1 0xE5 SHL DUP2 MSTORE PUSH1 0x4 ADD PUSH2 0x3B6 SWAP1 PUSH2 0x1387 JUMP JUMPDEST CALLER PUSH1 0x0 SWAP1 DUP2 MSTORE PUSH1 0x20 DUP2 SWAP1 MSTORE PUSH1 0x40 DUP2 KECCAK256 DUP1 SLOAD SWAP1 SWAP2 SWAP1 PUSH1 0xFF DUP1 DUP11 AND SWAP2 PUSH2 0xE66 SWAP2 SWAP1 DUP2 AND SWAP1 DUP11 AND PUSH2 0x1307 JUMP JUMPDEST PUSH2 0xE70 SWAP2 SWAP1 PUSH2 0x13B3 JUMP JUMPDEST SWAP1 POP PUSH2 0x777 DUP3 PUSH1 0x1 ADD SLOAD DUP3 PUSH2 0xF9A JUMP JUMPDEST DUP2 SLOAD PUSH1 0x40 DUP1 MLOAD PREVRANDAO PUSH1 0x20 DUP1 DUP4 ADD SWAP2 SWAP1 SWAP2 MSTORE TIMESTAMP DUP3 DUP5 ADD MSTORE CALLER PUSH1 0x60 SWAP1 DUP2 SHL PUSH12 0xFFFFFFFFFFFFFFFFFFFFFFFF NOT AND SWAP1 DUP4 ADD MSTORE PUSH1 0xF8 DUP5 DUP2 SHL PUSH1 0x1 PUSH1 0x1 PUSH1 0xF8 SHL SUB NOT SWAP1 DUP2 AND PUSH1 0x74 DUP6 ADD MSTORE PUSH2 0x100 SWAP1 SWAP6 DIV SWAP1 SHL SWAP1 SWAP4 AND PUSH1 0x75 DUP3 ADD MSTORE DUP2 MLOAD DUP1 DUP3 SUB PUSH1 0x56 ADD DUP2 MSTORE PUSH1 0x76 SWAP1 SWAP2 ADD SWAP1 SWAP2 MSTORE DUP1 MLOAD SWAP2 ADD KECCAK256 PUSH1 0x0 DUP2 JUMPDEST DUP5 SLOAD PUSH2 0xFFFF PUSH3 0x10000 SWAP1 SWAP2 DIV DUP2 AND SWAP1 DUP4 AND LT ISZERO PUSH2 0xF93 JUMPI PUSH1 0x0 PUSH2 0xF16 PUSH2 0xFFFF DUP7 AND DUP4 PUSH2 0x1457 JUMP JUMPDEST SWAP1 POP PUSH2 0xF26 DUP7 PUSH1 0x2 ADD SLOAD DUP3 PUSH2 0xF9A JUMP JUMPDEST PUSH2 0xF49 JUMPI PUSH1 0x2 DUP7 ADD DUP1 SLOAD PUSH1 0x1 PUSH2 0xFFFF DUP5 AND SHL OR SWAP1 SSTORE DUP3 PUSH2 0xF45 DUP2 PUSH2 0x146B JUMP JUMPDEST SWAP4 POP POP JUMPDEST DUP2 DUP4 PUSH1 0x40 MLOAD PUSH1 0x20 ADD PUSH2 0xF72 SWAP3 SWAP2 SWAP1 SWAP2 DUP3 MSTORE PUSH1 0xF0 SHL PUSH1 0x1 PUSH1 0x1 PUSH1 0xF0 SHL SUB NOT AND PUSH1 0x20 DUP3 ADD MSTORE PUSH1 0x22 ADD SWAP1 JUMP JUMPDEST PUSH1 0x40 MLOAD PUSH1 0x20 DUP2 DUP4 SUB SUB DUP2 MSTORE SWAP1 PUSH1 0x40 MSTORE DUP1 MLOAD SWAP1 PUSH1 0x20 ADD KECCAK256 PUSH1 0x0 SHR SWAP2 POP POP PUSH2 0xEEF JUMP JUMPDEST POP POP POP POP POP JUMP JUMPDEST PUSH1 0x1 PUSH2 0xFFFF DUP3 AND DUP4 SWAP1 SHR DUP2 AND EQ JUMPDEST SWAP3 SWAP2 POP POP JUMP JUMPDEST PUSH1 0x0 DUP1 PUSH1 0x0 NOT JUMPDEST PUSH1 0x1 DUP2 PUSH1 0x0 SIGNEXTEND SGT PUSH2 0x10C6 JUMPI PUSH1 0x0 NOT JUMPDEST PUSH1 0x1 DUP2 PUSH1 0x0 SIGNEXTEND SGT PUSH2 0x10B3 JUMPI DUP2 PUSH1 0x0 SIGNEXTEND PUSH1 0x0 EQ DUP1 ISZERO PUSH2 0xFE5 JUMPI POP DUP1 PUSH1 0x0 SIGNEXTEND PUSH1 0x0 EQ JUMPDEST PUSH2 0x10A1 JUMPI PUSH1 0x0 PUSH2 0xFF9 DUP4 DUP3 SIGNEXTEND DUP9 DUP4 SIGNEXTEND PUSH2 0x1482 JUMP JUMPDEST SWAP1 POP PUSH1 0x0 PUSH2 0x100B DUP4 DUP3 SIGNEXTEND DUP9 DUP4 SIGNEXTEND PUSH2 0x1482 JUMP JUMPDEST SWAP1 POP PUSH1 0x0 DUP3 PUSH1 0x1 SIGNEXTEND SLT ISZERO DUP1 ISZERO PUSH2 0x102B JUMPI POP DUP9 SLOAD PUSH1 0xFF AND PUSH1 0x0 SIGNEXTEND PUSH1 0x1 DUP4 SWAP1 SIGNEXTEND SLT JUMPDEST DUP1 ISZERO PUSH2 0x103B JUMPI POP PUSH1 0x0 DUP2 PUSH1 0x1 SIGNEXTEND SLT ISZERO JUMPDEST DUP1 ISZERO PUSH2 0x1056 JUMPI POP DUP9 SLOAD PUSH2 0x100 SWAP1 DIV PUSH1 0xFF AND PUSH1 0x0 SIGNEXTEND PUSH1 0x1 DUP3 SWAP1 SIGNEXTEND SLT JUMPDEST ISZERO PUSH2 0x109E JUMPI DUP9 SLOAD PUSH1 0x0 SWAP1 DUP4 SWAP1 PUSH2 0x106F SWAP1 PUSH1 0xFF AND DUP5 PUSH2 0x1307 JUMP JUMPDEST PUSH2 0x1079 SWAP2 SWAP1 PUSH2 0x13B3 JUMP JUMPDEST SWAP1 POP PUSH2 0x1089 DUP11 PUSH1 0x2 ADD SLOAD DUP3 PUSH2 0xF9A JUMP JUMPDEST ISZERO PUSH2 0x109C JUMPI DUP6 PUSH2 0x1098 DUP2 PUSH2 0x14A5 JUMP JUMPDEST SWAP7 POP POP JUMPDEST POP JUMPDEST POP POP JUMPDEST DUP1 PUSH2 0x10AB DUP2 PUSH2 0x14C4 JUMP JUMPDEST SWAP2 POP POP PUSH2 0xFC4 JUMP JUMPDEST POP DUP1 PUSH2 0x10BE DUP2 PUSH2 0x14C4 JUMP JUMPDEST SWAP2 POP POP PUSH2 0xFB5 JUMP JUMPDEST POP SWAP5 SWAP4 POP POP POP POP JUMP JUMPDEST PUSH1 0x0 DUP1 DUP1 JUMPDEST DUP4 PUSH2 0xFFFF AND DUP2 PUSH2 0xFFFF AND LT ISZERO PUSH2 0x1116 JUMPI DUP1 PUSH2 0xFFFF AND DUP6 SWAP1 SHR PUSH1 0x1 AND PUSH1 0x1 SUB PUSH2 0x1104 JUMPI DUP2 PUSH2 0x1100 DUP2 PUSH2 0x146B JUMP JUMPDEST SWAP3 POP POP JUMPDEST DUP1 PUSH2 0x110E DUP2 PUSH2 0x146B JUMP JUMPDEST SWAP2 POP POP PUSH2 0x10D4 JUMP JUMPDEST POP SWAP4 SWAP3 POP POP POP JUMP JUMPDEST PUSH1 0x0 PUSH1 0x20 DUP3 DUP5 SUB SLT ISZERO PUSH2 0x1130 JUMPI PUSH1 0x0 DUP1 REVERT JUMPDEST DUP2 CALLDATALOAD PUSH1 0x1 PUSH1 0x1 PUSH1 0xA0 SHL SUB DUP2 AND DUP2 EQ PUSH2 0x1147 JUMPI PUSH1 0x0 DUP1 REVERT JUMPDEST SWAP4 SWAP3 POP POP POP JUMP JUMPDEST PUSH4 0x4E487B71 PUSH1 0xE0 SHL PUSH1 0x0 MSTORE PUSH1 0x21 PUSH1 0x4 MSTORE PUSH1 0x24 PUSH1 0x0 REVERT JUMPDEST PUSH1 0x4 DUP2 LT PUSH2 0x1182 JUMPI PUSH4 0x4E487B71 PUSH1 0xE0 SHL PUSH1 0x0 MSTORE PUSH1 0x21 PUSH1 0x4 MSTORE PUSH1 0x24 PUSH1 0x0 REVERT JUMPDEST SWAP1 MSTORE JUMP JUMPDEST PUSH1 0xFF DUP11 DUP2 AND DUP3 MSTORE DUP10 AND PUSH1 0x20 DUP3 ADD MSTORE PUSH2 0xFFFF DUP9 AND PUSH1 0x40 DUP3 ADD MSTORE PUSH2 0x120 DUP2 ADD PUSH2 0x11B0 PUSH1 0x60 DUP4 ADD DUP10 PUSH2 0x1164 JUMP JUMPDEST PUSH4 0xFFFFFFFF SWAP7 DUP8 AND PUSH1 0x80 DUP4 ADD MSTORE SWAP5 SWAP1 SWAP6 AND PUSH1 0xA0 DUP7 ADD MSTORE PUSH1 0xC0 DUP6 ADD SWAP3 SWAP1 SWAP3 MSTORE PUSH1 0xE0 DUP5 ADD MSTORE ISZERO ISZERO PUSH2 0x100 SWAP1 SWAP3 ADD SWAP2 SWAP1 SWAP2 MSTORE SWAP5 SWAP4 POP POP POP POP JUMP JUMPDEST DUP1 CALLDATALOAD PUSH1 0xFF DUP2 AND DUP2 EQ PUSH2 0x11F8 JUMPI PUSH1 0x0 DUP1 REVERT JUMPDEST SWAP2 SWAP1 POP JUMP JUMPDEST PUSH1 0x0 DUP1 PUSH1 0x0 PUSH1 0x60 DUP5 DUP7 SUB SLT ISZERO PUSH2 0x1212 JUMPI PUSH1 0x0 DUP1 REVERT JUMPDEST PUSH2 0x121B DUP5 PUSH2 0x11E7 JUMP JUMPDEST SWAP3 POP PUSH2 0x1229 PUSH1 0x20 DUP6 ADD PUSH2 0x11E7 JUMP JUMPDEST SWAP2 POP PUSH1 0x40 DUP5 ADD CALLDATALOAD PUSH2 0xFFFF DUP2 AND DUP2 EQ PUSH2 0x1240 JUMPI PUSH1 0x0 DUP1 REVERT JUMPDEST DUP1 SWAP2 POP POP SWAP3 POP SWAP3 POP SWAP3 JUMP JUMPDEST PUSH1 0x0 DUP1 PUSH1 0x40 DUP4 DUP6 SUB SLT ISZERO PUSH2 0x125E JUMPI PUSH1 0x0 DUP1 REVERT JUMPDEST PUSH2 0x1267 DUP4 PUSH2 0x11E7 JUMP JUMPDEST SWAP2 POP PUSH2 0x1275 PUSH1 0x20 DUP5 ADD PUSH2 0x11E7 JUMP JUMPDEST SWAP1 POP SWAP3 POP SWAP3 SWAP1 POP JUMP JUMPDEST PUSH1 0xFF DUP13 DUP2 AND DUP3 MSTORE DUP12 AND PUSH1 0x20 DUP3 ADD MSTORE PUSH2 0xFFFF DUP11 AND PUSH1 0x40 DUP3 ADD MSTORE PUSH1 0x60 DUP2 ADD DUP10 SWAP1 MSTORE PUSH1 0x80 DUP2 ADD DUP9 SWAP1 MSTORE PUSH2 0x160 DUP2 ADD PUSH2 0x12B6 PUSH1 0xA0 DUP4 ADD DUP10 PUSH2 0x1164 JUMP JUMPDEST PUSH4 0xFFFFFFFF SWAP7 DUP8 AND PUSH1 0xC0 DUP4 ADD MSTORE SWAP5 SWAP1 SWAP6 AND PUSH1 0xE0 DUP7 ADD MSTORE PUSH2 0x100 DUP6 ADD SWAP3 SWAP1 SWAP3 MSTORE PUSH2 0x120 DUP5 ADD MSTORE ISZERO ISZERO PUSH2 0x140 SWAP1 SWAP3 ADD SWAP2 SWAP1 SWAP2 MSTORE SWAP7 SWAP6 POP POP POP POP POP POP JUMP JUMPDEST PUSH4 0x4E487B71 PUSH1 0xE0 SHL PUSH1 0x0 MSTORE PUSH1 0x11 PUSH1 0x4 MSTORE PUSH1 0x24 PUSH1 0x0 REVERT JUMPDEST PUSH2 0xFFFF DUP2 DUP2 AND DUP4 DUP3 AND MUL DUP1 DUP3 AND SWAP2 SWAP1 DUP3 DUP2 EQ PUSH2 0x1325 JUMPI PUSH2 0x1325 PUSH2 0x12F1 JUMP JUMPDEST POP POP SWAP3 SWAP2 POP POP JUMP JUMPDEST PUSH4 0x4E487B71 PUSH1 0xE0 SHL PUSH1 0x0 MSTORE PUSH1 0x12 PUSH1 0x4 MSTORE PUSH1 0x24 PUSH1 0x0 REVERT JUMPDEST PUSH1 0x0 PUSH2 0xFFFF DUP1 DUP5 AND DUP1 PUSH2 0x1358 JUMPI PUSH2 0x1358 PUSH2 0x132D JUMP JUMPDEST SWAP3 AND SWAP2 SWAP1 SWAP2 DIV SWAP3 SWAP2 POP POP JUMP JUMPDEST PUSH1 0x0 PUSH4 0xFFFFFFFF DUP1 DUP4 AND DUP2 DUP2 SUB PUSH2 0x137D JUMPI PUSH2 0x137D PUSH2 0x12F1 JUMP JUMPDEST PUSH1 0x1 ADD SWAP4 SWAP3 POP POP POP JUMP JUMPDEST PUSH1 0x20 DUP1 DUP3 MSTORE PUSH1 0x12 SWAP1 DUP3 ADD MSTORE PUSH18 0x496E76616C696420636F6F7264696E617465 PUSH1 0x70 SHL PUSH1 0x40 DUP3 ADD MSTORE PUSH1 0x60 ADD SWAP1 JUMP JUMPDEST PUSH2 0xFFFF DUP2 DUP2 AND DUP4 DUP3 AND ADD SWAP1 DUP1 DUP3 GT ISZERO PUSH2 0x13CE JUMPI PUSH2 0x13CE PUSH2 0x12F1 JUMP JUMPDEST POP SWAP3 SWAP2 POP POP JUMP JUMPDEST PUSH4 0xFFFFFFFF DUP2 DUP2 AND DUP4 DUP3 AND ADD SWAP1 DUP1 DUP3 GT ISZERO PUSH2 0x13CE JUMPI PUSH2 0x13CE PUSH2 0x12F1 JUMP JUMPDEST PUSH2 0xFFFF DUP3 DUP2 AND DUP3 DUP3 AND SUB SWAP1 DUP1 DUP3 GT ISZERO PUSH2 0x13CE JUMPI PUSH2 0x13CE PUSH2 0x12F1 JUMP JUMPDEST PUSH4 0xFFFFFFFF DUP2 DUP2 AND DUP4 DUP3 AND MUL DUP1 DUP3 AND SWAP2 SWAP1 DUP3 DUP2 EQ PUSH2 0x1325 JUMPI PUSH2 0x1325 PUSH2 0x12F1 JUMP JUMPDEST PUSH1 0x0 PUSH4 0xFFFFFFFF DUP1 DUP5 AND DUP1 PUSH2 0x1358 JUMPI PUSH2 0x1358 PUSH2 0x132D JUMP JUMPDEST DUP2 DUP2 SUB DUP2 DUP2 GT ISZERO PUSH2 0xFA8 JUMPI PUSH2 0xFA8 PUSH2 0x12F1 JUMP JUMPDEST PUSH1 0x0 DUP3 PUSH2 0x1466 JUMPI PUSH2 0x1466 PUSH2 0x132D JUMP JUMPDEST POP MOD SWAP1 JUMP JUMPDEST PUSH1 0x0 PUSH2 0xFFFF DUP1 DUP4 AND DUP2 DUP2 SUB PUSH2 0x137D JUMPI PUSH2 0x137D PUSH2 0x12F1 JUMP JUMPDEST PUSH1 0x1 DUP2 DUP2 SIGNEXTEND SWAP1 DUP4 SWAP1 SIGNEXTEND ADD PUSH2 0x7FFF DUP2 SGT PUSH2 0x7FFF NOT DUP3 SLT OR ISZERO PUSH2 0xFA8 JUMPI PUSH2 0xFA8 PUSH2 0x12F1 JUMP JUMPDEST PUSH1 0x0 PUSH1 0xFF DUP3 AND PUSH1 0xFF DUP2 SUB PUSH2 0x14BB JUMPI PUSH2 0x14BB PUSH2 0x12F1 JUMP JUMPDEST PUSH1 0x1 ADD SWAP3 SWAP2 POP POP JUMP JUMPDEST PUSH1 0x0 DUP2 PUSH1 0x0 SIGNEXTEND PUSH1 0x7F DUP2 SUB PUSH2 0x14BB JUMPI PUSH2 0x14BB PUSH2 0x12F1 JUMP INVALID LOG2 PUSH5 0x6970667358 0x22 SLT KECCAK256 0x49 0xD1 ADDRESS STOP SWAP11 0x4A PUSH6 0xAF024B3DE29C 0x4E SUB SWAP11 NUMBER 0xC7 0xA9 PUSH4 0x1FF94666 CALLCODE 0xB3 LOG4 DELEGATECALL 0xBC ADDRESS CHAINID NUMBER PUSH5 0x736F6C6343 STOP ADDMOD SGT STOP CALLER "},"methodIdentifiers":{"CELL_SCORE()":"9ee905c1","MAX_MINE_RATE()":"ff09bbaf","MAX_SIZE()":"8d67799e","MIN_MINE_RATE()":"46ed7144","MIN_SIZE()":"45dcd02c","WIN_BONUS()":"3a6f6b38","games(address)":"79131a19","getAdjacentMineCount(uint8,uint8)":"4cb57892","getGameInfo()":"1746bd1b","getPlayerStats()":"847a5e99","highScores(address)":"00d8e104","isCellRevealed(uint8,uint8)":"bc877d75","revealCell(uint8,uint8)":"7d64b8c5","startGame(uint8,uint8,uint16)":"31f5a015","totalGames(address)":"9663ccf1","winCount(address)":"54bd5023"}}}}}